02RETORNO01COBRANCA                           EMPRESA                       655BANCO VOTORANTIM S/A110425                                                                                                                                                                                                                                                                                            CL002000001
102265898930001460000009709          1                        0000000019                         50048000000001104251                             03052500000000010006550000001000000000000000000000000000000000000000000000000000000000000000000000000000000000000000000000000000000000000000000000   000000000000000000BTL INDUSTRIA DE PLASTICOS LTDA         00000000000000000000000  0000000000000000000002
